S01D000052544F535F42617365645F43616C63756C61746F722E7372656318
S11300000C942A000C9447000C9447000C9447006D
S11300100C9447000C9447000C9447000C94D409AA
S11300200C9447000C9447000C9447000C94470030
S11300300C9447000C9447000C9447000C94470020
S11300400C9447000C9447000C9447000C94470010
S11300500C94470011241FBECFE5D8E0DEBFCDBF0E
S113006010E0A0E6B0E0E6E1F5E202C005900D92F2
S1130070A23EB107D9F727E0A2EEB0E001C01D927D
S1130080A03CB207E1F70E9483040C9489120C94FB
S113009000000E943A070E9434050E94860460E032
S11300A080E00E945B0684E890E00E94AE052FEF9A
S11300B087EA91E6215080409040E1F700C00000BB
S11300C00E94760660E080E00E945B068FE890E084
S11300D00E94AE0560E081E00E945B0688E990E042
S11300E00E94AE052FEF87EA91E6215080409040B0
S11300F0E1F700C000000E94760640E061E083E280
S11301000E94D80A909373018093720180917801C0
S1130110909179010E94D80FBCCFCF93DF931F92A7
S1130120CDB7DEB7198207EE10E04FEF5FEFBE01E7
S11301306F5F7F4F80917201909173010E94A60BB3
S11301408981883741F091ED980F9B3020F08B32F4
S113015011F08D3219F40E94500534C08D3371F5BD
S11301608091E60081110FC08DE30E94500560E08C
S113017081E00E945B06F801608171818281938134
S11301800E94CA051FC08130E9F48DE30E94500526
S113019060E081E00E945B0683EA90E00E94AE0585
S11301A0FFEF27EA81E6F15020408040E1F700C0EC
S11301B000000E9476061092E60004C0833611F413
S11301C00E94760682E390E00E945E0FAECF10920A
S11301D0E6001092E4001092E5001092E7001092FD
S11301E0E8001092E9001092EA001092EB001092DD
S11301F0EC001092ED001092EE00E0EFF0E08AEFD8
S113020090E01192E817F907E1F78AE08093E300A0
S1130210EAEFF0E082E791E0108211821282138209
S113022014821582168217823896E817F907A1F707
S11302308FE08093E20008958091E400E82FF0E0DD
S1130240E051FF4F9091EF0090839091E5009F5F04
S11302509093E5008F5F8093E40008956F927F92FE
S11302608F929F92AF92BF92CF92DF92EF92FF92C2
S11302700F931F93CF93DF93E091E500F0E0EE0F2F
S1130280FF1FEE0FFF1FEE0FFF1FE650FF4F2081F1
S1130290318142815381648175818681978101E036
S11302A00E941812622E732E842E952ED62FC72FDD
S11302B0B82FA92F02E00E941812A22EB32EC42E2A
S11302C0D52EE62EF72E082F192F262D372D482D43
S11302D0592D6D2F7C2F8B2F9A2F0E943112A091B4
S11302E0EF00B0E0D0971B2F110F110BAA2EBB2EDD
S11302F0C12ED12EE12EF12E012F0E943112208326
S11303003183428353836483758386839783DF9128
S1130310CF911F910F91FF90EF90DF90CF90BF90FE
S1130320AF909F908F907F906F9008951092E4000B
S11303301092E5001092E7001092E8001092E90094
S11303401092EA001092EB001092EC001092ED0073
S11303501092EE00E0EFF0E08AEF90E01192E817DF
S1130360F907E1F78AE08093E300EAEFF0E082E73F
S113037091E01082118212821382148215821682F5
S113038017823896E817F907A1F78FE08093E20007
S113039008958F929F92AF92BF92CF92DF92EF9285
S11303A0FF920F931F93CF93C091E300EC2FF0E0E3
S11303B0CF01880F991F880F991F880F991F9C01DF
S11303C026503F4F4901FC01EE5FFE4FD901AC902E
S11303D01196BC9011971296CC9012971396DC90BC
S11303E013971496EC9014971596FC9015971696FF
S11303F00C91169717961C9120813181428153816B
S113040064817581868197810E94E810F4012083BC
S11304103183428353836483758386839783C09334
S1130420E2009090E400C91590F5EC2FF0E0CF01C4
S11304300196DC01A051BF4F2C91DF01A051BF4FA9
S11304402C93EE0FFF1FEE0FFF1FEE0FFF1FE65F53
S1130450FE4FB081A18172816381548145813681CF
S11304602781FC01EE0FFF1FEE0FFF1FEE0FFF1F92
S1130470E650FF4FB083A183728363835483458323
S113048036832783CF5FC911D0CF9092E200CF91FA
S11304901F910F91FF90EF90DF90CF90BF90AF909E
S11304A09F908F9008958F929F92AF92BF92CF9218
S11304B0DF92EF92FF920F931F93CF93DF93C0913C
S11304C0E3008C2E912CF401EE0FFF1FEE0FFF1FA3
S11304D0EE0FFF1FEE5FFE4FA080B180C280D3807D
S11304E0E480F580068117812A2D3B2D4C2D5D2D4E
S11304F06E2D7F2D802F912FA0E00E94431221F4B6
S113050081E08093E6001FC0C401880F991F880F03
S1130510991F880F991F9C0126503F4F4901F901EB
S113052020813181428153816481758186819781E3
S11305300E944311F40120833183428353836483F3
S1130540758386839783C093E200D091E400CD172E
S113055090F5EC2FF0E0CF010196DC01A051BF4FE4
S11305602C91DF01A051BF4F2C93EE0FFF1FEE0F14
S1130570FF1FEE0FFF1FE65FFE4FB081A181728166
S113058063815481458136812781FC01EE0FFF1F71
S1130590EE0FFF1FEE0FFF1FE650FF4FB083A18346
S11305A0728363835483458336832783CF5FCD135C
S11305B0D0CFD093E200DF91CF911F910F91FF90A4
S11305C0EF90DF90CF90BF90AF909F908F90089561
S11305D01092E3008091E400882309F491C080E044
S11305E090E0FC01E051FF4F2081283769F5FC01C0
S11305F0E051FF4F81818F3209F053C08091E300B5
S113060090E0FC01E051FF4F2081283709F06EC0D3
S1130610FC01E051FF4F81818F3209F067C00E94D5
S1130620C9010E9453028091E30090E0FC01E05173
S1130630FF4F2081283709F059C0FC01E051FF4FDA
S113064081818F3261F352C02F3209F04FC0FC0117
S1130650E051FF4F81818837B9F58091E30090E044
S1130660FC01E051FF4F20812F3209F03FC0FC0113
S1130670E051FF4F81818837C9F50E9453020E94DF
S1130680C9018091E30090E0FC01E051FF4F20811B
S11306902F3261F5FC01E051FF4F8181883769F306
S11306A025C0E091E300F0E0E051FF4F80818837FE
S11306B0E9F40E94C901E091E300F0E0E051FF4F4A
S11306C080818837B1F312C0E091E300F0E0E0519B
S11306D0FF4F80818F3251F40E945302E091E30076
S11306E0F0E0E051FF4F80818F32B1F38091E3005D
S11306F08F5F8093E3009091E400891708F470CF32
S1130700EAEFF0E080818093E70081818093E80044
S113071082818093E90083818093EA0084818093BD
S1130720EB0085818093EC0086818093ED008781C6
S11307308093EE0008958F929F92AF92BF92CF92D2
S1130740DF92EF92FF920F931F93CF93DF93109258
S1130750E300D091E400DD2309F44CC02091E700CC
S11307603091E8004091E9005091EA006091EB007B
S11307707091EC008091ED009091EE00A0EFB0E05C
S1130780E2E0F1E088248A948D0E912C84010F50CC
S11307901F4F4801CD91CB3259F4A080B180C28063
S11307A0D380E480F580068117810E9431120CC049
S11307B0CD3251F4A080B180C280D380E480F58032
S11307C0068117810E943A123896A815B90511F7C7
S11307D02093E7003093E8004093E9005093EA0047
S11307E06093EB007093EC008093ED009093EE0027
S11307F0D093E300DF91CF911F910F91FF90EF9081
S1130800DF90CF90BF90AF909F908F9008950E94FB
S1130810E8020E949B038091E600813011F40E945B
S1130820960108950E9497048093EF00882351F164
S113083020E04FEF5FEF6FEE70E0809172019091D6
S113084073010E94050B8091EF00883731F0982FD7
S11308509B7F9B3211F08D3219F40E941C0112C04F
S113086090ED980F9A3018F40E942E010BC08D332E
S113087029F40E9407040E94070404C0833611F47B
S11308800E94E70084E690E00E945E0FCBCFEF92D7
S1130890FF920F930F2EF8E7EF2EF1E0FF2EF02DCD
S11308A003E020E030E044E650E06EEA70E089E4E2
S11308B090E00E94E20C0F2EF6E7EF2EF1E0FF2EFF
S11308C0F02D02E020E030E044E650E068EB70E018
S11308D082E194E00E94E20C0F2EF4E7EF2EF1E0A7
S11308E0FF2EF02D01E020E030E044E650E060EC23
S11308F070E08DE890E00E94E20C0E94F40D0F91EC
S1130900FF90EF9008950E944704FFCF61E08CE0D0
S11309100E94800661E08DE00E94800661E08EE026
S11309200E94800661E08FE00E9480060895DF92B5
S1130930EF92FF920F931F93CF93DF930F2EFCEC54
S1130940EF2EF0E0FF2EF02DD12CDCE060E08D2FB7
S11309500E9480068701CAE18C2F0E94070781113B
S11309600DC0F801D0808C2F0E9407078823D9F38B
S11309708FE39CE90197F1F700C00000CF5F0F5FA0
S11309801F4FCE3149F761E08D2F0E948006DF5F53
S113099094E0E90EF11CD031C9F68D2DDF91CF9191
S11309A01F910F91FF90EF90DF900895CF93C82F80
S11309B060E081E00E94800660E082E00E948006A0
S11309C0C4FB662760F983E00E948006C5FB6627A6
S11309D060F984E00E948006C6FB662760F985E022
S11309E00E9480066C2F661F6627661F86E00E94A1
S11309F0800661E082E00E9480068FE99FE0019713
S1130A00F1F700C0000060E082E00E9480066C2FD5
S1130A10617083E00E948006C1FB662760F984E070
S1130A200E948006C2FB662760F985E00E9480066A
S1130A30C3FB662760F986E00E94800661E082E0DD
S1130A400E9480068FE99FE00197F1F700C0000043
S1130A5060E082E00E9480068FE19EE40197F1F756
S1130A6000C00000CF91089583E30E94D60482E37E
S1130A700E94D60488E20E94D60481E00E94D60433
S1130A8086E00E94D6048CE00E94D60482E00E9494
S1130A90D6048FE19EE40197F1F700C000000895A9
S1130AA0CF93C82F61E081E00E94800660E082E07D
S1130AB00E948006C4FB662760F983E00E948006DA
S1130AC0C5FB662760F984E00E948006C6FB6627A2
S1130AD060F985E00E9480066C2F661F6627661FFA
S1130AE086E00E94800661E082E00E9480068FE931
S1130AF09FE00197F1F700C0000060E082E00E94EF
S1130B0080066C2F617083E00E948006C1FB66271B
S1130B1060F984E00E948006C2FB662760F985E0E4
S1130B200E948006C3FB662760F986E00E94800667
S1130B3061E082E00E9480068FE99FE00197F1F76F
S1130B4000C0000060E082E00E9480068FE19EE425
S1130B500197F1F700C00000CF9108950F931F9300
S1130B60CF93FC018081882359F08F01C0E00E945B
S1130B705005CF5FF801EC0FF11D80818111F7CF93
S1130B808FE19EE40197F1F700C00000CF911F911F
S1130B900F9108954F925F926F927F928F929F92DE
S1130BA0AF92BF92CF92DF92EF92FF926B017C01E2
S1130BB0611571058105910551F480E30E9450058A
S1130BC067C01C141D041E041F047CF061C099231B
S1130BD0C4F78DE20E945005F094E094D094C09440
S1130BE0C11CD11CE11CF11CECCF61E070E080E081
S1130BF090E00F2EFAE08F2E912CA12CB12CF02D29
S1130C00DC01CB01880F991FAA1FBB1F2C013D01DA
S1130C10440C551C661C771C440C551C661C771C24
S1130C20480E591E6A1E7B1EC701B601A501940118
S1130C300E94C910640D751D861D971DC22ED32EEA
S1130C40E42EF52E1C141D041E041F04CCF2623085
S1130C50710581059105E4F00F2EFAE08F2E912C99
S1130C60A12CB12CF02DA50194010E94C910C22E13
S1130C70D32EE42EF52E80E3860F0E9450056C2DB2
S1130C807D2D8E2D9F2D62307105810591055CF7B8
S1130C908FE19EE40197F1F700C00000FF90EF9010
S1130CA0DF90CF90BF90AF909F908F907F906F9088
S1130CB05F904F900895CF93DF9300D0CDB7DEB708
S1130CC090E8998390EC9A83FE01E80FF11D8181ED
S1130CD0860F0E94D6048FE19EE40197F1F700C0CD
S1130CE000000F900F90DF91CF91089581E00E9452
S1130CF0D6048FE19EE40197F1F700C00000089547
S1130D00982F9695969596958770662309F43FC01B
S1130D10613009F07BC0913099F028F09230E9F00D
S1130D20933041F108954BB321E030E0B90102C0A2
S1130D30660F771F8A95E2F7CB01842B8BBB08954E
S1130D4048B321E030E0B90102C0660F771F8A95ED
S1130D50E2F7CB01842B88BB089545B321E030E052
S1130D60B90102C0660F771F8A95E2F7CB01842B85
S1130D7085BB089542B321E030E0B90102C0660F9B
S1130D80771F8A95E2F7CB01842B82BB08959130BB
S1130D90A1F028F09230F9F0933059F108954BB353
S1130DA021E030E0B90102C0660F771F8A95E2F7AF
S1130DB0CB01809584238BBB089548B321E030E0B8
S1130DC0B90102C0660F771F8A95E2F7CB018095BF
S1130DD0842388BB089545B321E030E0B90102C003
S1130DE0660F771F8A95E2F7CB018095842385BB34
S1130DF0089542B321E030E0B90102C0660F771FC5
S1130E008A95E2F7CB018095842382BB0895282F2D
S1130E102770869586958695813079F028F0823002
S1130E20A9F08330E1F024C089B390E002C0959525
S1130E3087952A95E2F78170089586B390E002C001
S1130E40959587952A95E2F78170089583B390E08C
S1130E5002C0959587952A95E2F78170089580B32D
S1130E6090E002C0959587952A95E2F781700895E0
S1130E7080E00895E0E6F0E044E850E061E070E0EE
S1130E808081982F96959695969587702181222337
S1130E9019F02130C9F16BC0913091F028F09230F3
S1130EA0D9F0933029F163C09AB39B0102C0220F99
S1130EB0331F8A95E2F7822F809589238ABB57C016
S1130EC097B39B0102C0220F331F8A95E2F7822F4A
S1130ED08095892387BB4BC094B39B0102C0220F2A
S1130EE0331F8A95E2F7822F8095892384BB3FC004
S1130EF091B39B0102C0220F331F8A95E2F7822F20
S1130F008095892381BB33C0913089F028F09230D9
S1130F10C9F0933011F12BC02AB3DB0102C0AA0F30
S1130F20BB1F8A95E2F7CD01822B8ABB20C027B371
S1130F30DB0102C0AA0FBB1F8A95E2F7CD01822B09
S1130F4087BB15C024B3DB0102C0AA0FBB1F8A955F
S1130F50E2F7CD01822B84BB0AC021B3DB0102C0BE
S1130F60AA0FBB1F8A95E2F7CD01822B81BB329673
S1130F70E417F50709F084CF0895CF93DF93EC01CC
S1130F800E941E0E80917A0190917B01892B31F48D
S1130F908FE791E090937B0180937A0120917C010B
S1130FA030917D01C9018C0F9D1F8B3D45E0940755
S1130FB070F42817390770F4C0917A01D0917B013D
S1130FC0C20FD31F90937D0180937C0105C0C0E0C4
S1130FD0D0E002C0C0E0D0E00E94DF0ECE01DF917D
S1130FE0CF9108950895FC010396928381832FEF96
S1130FF03FEF34832383968385839087878310828E
S11310000895FC01118610860895CF93DF939C0107
S1131010FB01DC011196CD91DC911297D383C2833D
S11310208C819D81958384838C819D81DC011396C1
S11310307C936E9312977D836C8331872087F901AB
S113104080818F5F8083DF91CF910895CF93DF9369
S1131050EB01488159814F3F2FEF520721F4FC01E6
S1131060A781B0850DC0DC01139601C0DF01129683
S1131070ED91FC9113972081318142175307B0F70A
S11310801296ED91FC911397FB83EA83D583C48375
S1131090BD83AC831396DC93CE931297998788878C
S11310A0FC0120812F5F2083DF91CF910895CF939E
S11310B0DF93FC01A085B185C281D38184819581B0
S11310C09D838C83C481D581828193819B838A8310
S11310D011968D919C911297E817F90731F4848148
S11310E0958112969C938E931197118610868C91FC
S11310F081508C938C91DF91CF91089531E1FC0163
S11311003083319722E220833197A3E3A083319780
S113111060833197708331971082319760E86083E0
S113112031971082319762E06083319763E0608386
S1131130319764E06083319765E06083319766E0BE
S11311406083319767E06083319768E0608331970B
S113115069E06083319760E1608331973083319730
S113116032E13083319733E13083319734E1308396
S1131170319735E13083319736E13083319737E168
S11311803083319738E13083319739E130833197B7
S113119030E23083319731E23083319720833197C5
S11311A023E220833197408331975083319726E29D
S11311B02083319727E22083319728E220833197D7
S11311C029E22083319720E32083319721E3208390
S11311D0869708951BBC89EF8ABD8BE08EBD89B7C5
S11311E0806189BFA091BE07B091BF07CD91CDBFEB
S11311F0DD91DEBFFF91EF91DF91CF91BF91AF9170
S11312009F918F917F916F915F914F913F912F911A
S11312101F910F91FF90EF90DF90CF90BF90AF9010
S11312209F908F907F906F905F904F903F902F9002
S11312301F900F900FBE0F90089581E008950F92B4
S11312400FB6F8940F921F9211242F923F924F924F
S11312505F926F927F928F929F92AF92BF92CF9242
S1131260DF92EF92FF920F931F932F933F934F932D
S11312705F936F937F938F939F93AF93BF93CF931A
S1131280DF93EF93FF93A091BE07B091BF070DB614
S11312900D920EB60D920E94720FA091BE07B091EE
S11312A0BF07CD91CDBFDD91DEBFFF91EF91DF91FF
S11312B0CF91BF91AF919F918F917F916F915F91EA
S11312C04F913F912F911F910F91FF90EF90DF90DD
S11312D0CF90BF90AF909F908F907F906F905F90D2
S11312E04F903F902F901F900F900FBE0F90089536
S11312F00F920FB6F8940F921F9211242F923F92DF
S11313004F925F926F927F928F929F92AF92BF9211
S1131310CF92DF92EF92FF920F931F932F933F93FD
S11313204F935F936F937F938F939F93AF93BF93E9
S1131330CF93DF93EF93FF93A091BE07B091BF07C4
S11313400DB60D920EB60D920E94240E81110E94CC
S1131350720FA091BE07B091BF07CD91CDBFDD91B3
S1131360DEBFFF91EF91DF91CF91BF91AF919F913C
S11313708F917F916F915F914F913F912F911F9129
S11313800F91FF90EF90DF90CF90BF90AF909F9020
S11313908F907F906F905F904F903F902F901F9011
S11313A00F900FBE0F9008950E94780918950FB6FC
S11313B0F8940F92FC01928D0F900FBE81E0911171
S11313C080E008950F931F93CF93DF93EC01042FD4
S11313D01A8D4C8D4423B9F1011116C050E08A8155
S11313E09B810E9480122C8D8A819B81820F911D8A
S11313F09B838A832C813D818217930720F1888106
S113140099819B838A831FC050E08E819F810E94B3
S113141080128C8D90E09195819591092E813F8168
S1131420280F391F3F832E8348815981241735079C
S113143030F42C813D81820F931F9F838E83023071
S113144011F4111111501F5F1A8F80E0DF91CF91B9
S11314501F910F910895FC01448D4423A9F050E09D
S113146026813781240F351F378326838481958114
S11314702817390720F08081918197838683CB01D7
S1131480668177810E9480120895EF92FF920F93F4
S11314901F93CF938C010FB6F8940F92FC01C68D65
S11314A01C16ACF48189811106C011C0F801818930
S11314B0811105C00CC07801F1E1EF0EF11CC701E8
S11314C00E943C1081110E94C510C15079F78FEF22
S11314D0F801868F0F900FBE0FB6F8940F92C58D4A
S11314E01C16ACF48085811106C011C0F8018085FA
S11314F0811105C00CC07801F8E0EF0EF11CC701A2
S11315000E943C1081110E94C510C15079F78FEFE1
S1131510F801858F0F900FBECF911F910F91FF900F
S1131520EF900895CF93DF93EC010FB6F8940F92E8
S1131530E881F9818B8D2C8D90E030E0829FA001B1
S1131540839F500D929F500D11244E0F5F1F5D839A
S11315504C831A8EFB83EA830197829FA001839FA9
S1131560500D929F500D1124CF01840F951F9F831E
S11315708E838FEF8D8F8E8F61110CC088858823A9
S113158089F0CE0108960E943C10882359F00E94ED
S11315901F0908C0CE0108960E94F307CE014196A8
S11315A00E94F3070F900FBE81E0DF91CF91089561
S11315B00F931F93CF93DF93082F162F6623C1F049
S11315C0869FC00111244F960E94BD07EC0100972D
S11315D041F415C00B8F1C8F61E0CE010E94920A6A
S11315E00EC04F9699838883F5CFD983C883F2CFF1
S11315F08FE190E00E94BD07EC01892BB1F7CE0189
S1131600DF91CF911F910F9108959F92AF92BF9256
S1131610CF92DF92EF92FF920F931F93CF93DF93BA
S113162000D000D01F92CDB7DEB78C016B015D8373
S11316304C83A22EB12C992493947C0188E0E80E6B
S1131640F11C0FB6F8940F92F801928D838D9817C0
S113165018F0F2E0AF1219C04A2DB601C8010E9479
S1131660E209F8019189992349F0C80141960E9441
S11316703C10882331F00E941F0903C081110E948D
S11316801F090F900FBE81E050C08C819D81892B72
S113169021F40F900FBE80E048C0B11005C0CE0108
S11316A001960E948410B92C0F900FBE0E941E0E4A
S11316B00FB6F8940F92F801858D8F3F09F4158EBB
S11316C0F801868D8F3F09F4168E0F900FBEBE0170
S11316D06C5F7F4FCE0101960E948F1081111FC055
S11316E00FB6F8940F92F801928D0F900FBE838D70
S11316F098130FC06C817D81C7010E942A10C80114
S11317000E94450A0E94DF0E81119BCF0E941F098F
S113171098CFC8010E94450A0E94DF0E92CFC801EB
S11317200E94450A0E94DF0E80E00F900F900F90F8
S11317300F900F90DF91CF911F910F91FF90EF9039
S1131740DF90CF90BF90AF909F9008959F92AF92FB
S1131750BF92CF92DF92EF92FF920F931F93CF939A
S1131760DF9300D000D01F92CDB7DEB78C015B01B0
S11317705D834C83E12C992493946C0181E1C80E20
S1131780D11C0FB6F8940F92F801F28CFF20A9F047
S1131790B501C8010E942B0AFA94F801F28E8085E3
S11317A0882339F0C80108960E943C1081110E94D8
S11317B01F090F900FBE81E051C08C819D81892B40
S11317C021F40F900FBE80E049C0E11005C0CE01A6
S11317D001960E948410E92C0F900FBE0E941E0EE9
S11317E00FB6F8940F92F801858D8F3F09F4158E8A
S11317F0F801868D8F3F09F4168E0F900FBEBE013F
S11318006C5F7F4FCE0101960E948F1081111AC028
S1131810C8010E94D709882379F06C817D81C601B3
S11318200E942A10C8010E94450A0E94DF0E8111FD
S1131830A8CF0E941F09A5CFC8010E94450A0E9493
S1131840DF0E9FCFC8010E94450A0E94DF0EC80127
S11318500E94D709882309F494CF80E00F900F9059
S11318600F900F900F90DF91CF911F910F91FF90E8
S1131870EF90DF90CF90BF90AF909F900895E0914C
S11318808607F09187078081811107C08FEF9FEF52
S113189090935E0780935D070895E0918607F09129
S11318A087070580F681E02D0680F781E02D82818F
S11318B0938190935E0780935D07089502E717E094
S11318C0809171078823E1F30FB6F8940F92D80141
S11318D01596ED91FC911697C681D781CE0102969B
S11318E00E94570880916707815080936707809111
S11318F071078150809371070F900FBE8F89988D67
S11319000E94F207CE010E94F207809171078111B3
S1131910DBCFD6CFFF920F931F93CF93DF93EC01CE
S1131920F62E00916507109166078091BE0790918D
S1131930BF0702960E945708CF3F8FEFD80769F47C
S1131940FF2059F06091BE077091BF076E5F7F4F13
S113195088E697E00E9405082FC0C00FD11FE091D0
S1131960BE07F091BF07D383C283C017D10768F4C1
S11319706091BE077091BF0780918407909185079D
S11319806E5F7F4F0E94260817C06091BE0770915A
S1131990BF0780918607909187076E5F7F4F0E94F3
S11319A0260880915D0790915E07C817D90720F437
S11319B0D0935E07C0935D07DF91CF911F910F9184
S11319C0FF9008954F925F926F927F928F929F92B1
S11319D0AF92BF92CF92DF92EF92FF920F93CF9389
S11319E0DF934C016B015A012901CA010E94BD0712
S11319F03C01892B09F4E7C086E290E00E94BD0710
S1131A00EC01892B59F0788E6F8A81E0A81AB1080D
S1131A10A60CB71CC114D10429F420C0C3010E9430
S1131A20F207D1C0D6018C91898F8C918823A1F0C3
S1131A30AE01465E5F4FF6013196B8E0CB0ED11C85
S1131A40CF012191DA012D93AD01DC018C91882322
S1131A5019F0EC15FD05A1F718A201C0198E043088
S1131A6008F003E00E8B6E01B2E0CB0ED11CC60170
S1131A700E940108CE010C960E940108D987C887EC
S1131A8084E090E0801B91099D878C87DB8BCA8B57
S1131A9019A21AA21BA21CA21DA2A201B401C50173
S1131AA00E947E0899838883E114F10419F0F701F8
S1131AB0D183C0830FB6F8940F92809167078F5F2C
S1131AC0809367078091BE079091BF07892BD1F55A
S1131AD0D093BF07C093BE0780916707813009F098
S1131AE041C08AE997E00E94F30783EA97E00E94E5
S1131AF0F3078CEA97E00E94F30785EB97E00E94D6
S1131B00F30781E997E00E94F30788E897E00E94D1
S1131B10F3078BE797E00E94F30782E797E00E94C0
S1131B20F30788E697E00E94F30781E997E0909332
S1131B3087078093860788E897E0909385078093CA
S1131B40840710C08091630781110CC0E091BE0727
S1131B50F091BF0796898E89891720F0D093BF072B
S1131B60C093BE0780915F078F5F80935F078E8964
S1131B7090916407981710F48093640790E09C0197
S1131B80220F331F220F331F220F331F820F931F85
S1131B90B6018656984F0E9405080F900FBE80919B
S1131BA06307882361F0E091BE07F091BF0796892F
S1131BB08E89981730F40E941F0981E005C081E0E6
S1131BC003C081E001C08FEFDF91CF910F91FF90AF
S1131BD0EF90DF90CF90BF90AF909F908F907F90C9
S1131BE06F905F904F900895EF92FF920F930F2E96
S1131BF0FBE5EF2EF7E0FF2EF02D00E020E030E0D3
S1131C0045E550E06CED70E08EE59CE00E94E20C4E
S1131C10813081F4F8948FEF9FEF90935E07809367
S1131C205D0781E080936307109266071092650751
S1131C300E94EA080F91FF90EF90089580915A074F
S1131C408F5F80935A070895CF92DF92EF92FF92AD
S1131C500F931F93CF93DF9380915A07811199C0FB
S1131C60E0906507F09066078FEFE81AF80AF092A3
S1131C706607E0926507E114F104B9F480918607E0
S1131C8090918707209184073091850730938707C7
S1131C90209386079093850780938407809160073B
S1131CA08F5F809360070E943F0C80915D07909145
S1131CB05E07E816F90610F4D12C53C0D12CCC24BD
S1131CC0C394E0918607F09187078081811107C052
S1131CD08FEF9FEF90935E0780935D0742C0E09182
S1131CE08607F09187070580F681E02DC681D781AC
S1131CF08A819B81E816F90628F490935E07809305
S1131D005D072FC08E010E5F1F4FC8010E94570848
S1131D108C899D89892B21F0CE010C960E9457084D
S1131D208E8990916407981710F48093640790E06B
S1131D309C01220F331F220F331F220F331F820FE8
S1131D40931FB8018656984F0E940508E091BE077C
S1131D50F091BF079E898689981708F4B2CFDC2CCE
S1131D60B0CFE091BE07F091BF07868990E0FC01F7
S1131D70EE0FFF1FEE0FFF1FEE0FFF1F8E0F9F1FB3
S1131D80FC01E656F84F8081823048F0DD24D3947C
S1131D9006C0809162078F5F80936207D12C809187
S1131DA06107882311F0DD24D3948D2DDF91CF9129
S1131DB01F910F91FF90EF90DF90CF900895DF92E5
S1131DC0EF92FF920F931F93CF93DF930FB6F89484
S1131DD00F9280915A07815080935A0780915A0735
S1131DE081115FC080916707811133C05DC0D70145
S1131DF01596ED91FC911697C681D781CE010C966C
S1131E000E9457088E010E5F1F4FC8010E94570899
S1131E108E8990916407981710F48093640790E07A
S1131E209C01220F331F220F331F220F331F820FF7
S1131E30931FB8018656984F0E940508E091BE078B
S1131E40F091BF079E898689981768F0D092610740
S1131E500AC0C0E0D0E00F2EFBE7EF2EF7E0FF2E24
S1131E60F02DDD24D394F70180818111C0CFCD2BD7
S1131E7011F00E943F0CC0916207CC2351F0D1E0D5
S1131E800E94240E8111D0936107C150C9F71092AA
S1131E90620780916107882331F00E941F0981E065
S1131EA003C080E001C080E00F900FBEDF91CF91AE
S1131EB01F910F91FF90EF90DF900895CF93DF93E0
S1131EC0EC01892B51F00E941E0E60E0CE010E94AD
S1131ED08A0C0E94DF0E811102C00E941F09DF914B
S1131EE0CF91089580915A07882321F081E080934F
S1131EF0610708951092610720916407822F90E092
S1131F00FC01EE0FFF1FEE0FFF1FEE0FFF1FE80F88
S1131F10F91FE656F84F3081311111C02150822F3C
S1131F2090E0FC01EE0FFF1FEE0FFF1FEE0FFF1FEF
S1131F30E80FF91FE656F84F3081332379F3AC01EB
S1131F40440F551F440F551F440F551F480F591F69
S1131F50DA01A656B84F1196ED91FC9112970280C2
S1131F60F381E02D1296FC93EE9311974356584F4C
S1131F70E417F50729F442815381FD01528341831B
S1131F80FC01EE0FFF1FEE0FFF1FEE0FFF1F8E0F62
S1131F909F1FFC01E656F84F0180F281E02D8681F7
S1131FA097819093BF078093BE0720936407089599
S1131FB00F931F93CF93DF93EC010FB6F8940F9216
S1131FC0892B21F4C091BE07D091BF078E010E5F0B
S1131FD01F4FC8010E9457088C899D89892B21F0C5
S1131FE0CE010C960E945708B80188E697E00E943B
S1131FF005088DA1813009F41DA20F900FBE8091B8
S11320006307882339F00FB6F8940F920E943F0CAF
S11320100F900FBE8091BE079091BF07C817D907D4
S1132020A1F480916307882319F00E941F090DC051
S11320309091680780916707981305C01092BF07B5
S11320401092BE0702C00E94720FDF91CF911F91C0
S11320500F910895CF93DF93EB016091BE077091C8
S1132060BF07645F7F4F0E94260861E0CE010E9493
S11320708A0CDF91CF9108950F931F93CF93DF9331
S1132080DC011596ED91FC911697C681D7818E01DE
S1132090045F1F4FC8010E94570880915A0781119D
S11320A01CC00A501109C8010E9457088E899091DA
S11320B06407981710F48093640790E09C01220F42
S11320C0331F220F331F220F331F820F931FB801B8
S11320D08656984F0E94050805C0B8018BE797E023
S11320E00E940508E091BE07F091BF079E8986898A
S11320F0891720F481E08093610701C080E0DF91BB
S1132100CF911F910F91089520916007FC012083C6
S11321102091650730916607328321830895CF9318
S1132120DF930FB6F8940F922091650730916607FC
S1132130DB014D915C914F3FBFEF5B07F1F0EC0188
S1132140E981FA81A0916007B881BA1719F02E17B6
S11321503F07A8F42E1B3F0B2417350748F4FB0157
S1132160421B530B518340830E94841080E008C0BB
S1132170FB011182108281E003C080E001C081E094
S11321800F900FBEDF91CF91089581E08093610796
S11321900895052E97FB1EF400940E94E01057FD4D
S11321A007D00E944F1207FC03D04EF40C94E010A9
S11321B050954095309521953F4F4F4F5F4F08956F
S11321C090958095709561957F4F8F4F9F4F08959F
S11321D0DF93CF931F930F939A9DF02D219FF00DC2
S11321E08B9DF00D8A9DE02DF10D039FF00D029F54
S11321F0E00DF11D4E9DE00DF11D5E9DF00D4F9D16
S1132200F00D7F936F93BF92AF925F934F93D5017D
S11322100E9471128B01AC01D7010E947112EB0173
S1132220E80FF91FD6010E9438112F913F91D60172
S11322300E947112C60FD71FE81FF91FAF91BF91FB
S11322400E9438112F913F910E947112C60FD71F1F
S1132250E81FF91FD6010E947112E60FF71F9801BB
S1132260BE01CF0111240F911F91CF91DF910895E9
S11322700E947112460F571FC81FD91F08F43196C8
S11322800895689401C0E894F92FF12B12F00C948E
S11322907511A0E0B0E0EFE4F1E10C94E711092E30
S11322A0059422F40E94D111112392F4F0E80F2630
S11322B0FFEFE094F09400951095B094C094D094FE
S11322C0A194BF0ACF0ADF0AEF0AFF0A0F0B1F0B04
S11322D00E94801107FC0E94D111CDB7DEB7ECE05B
S11322E00C940312689401C0E8948F929F92CF9348
S11322F0DF930E948011DF91CF919F908F9008957A
S113230088249924F401E401B0E49F93AA279A1540
S11323108B049C04ED05FE05CF05D007A10798F4B6
S1132320AD2FDC2FCF2FFE2FE92D982C892E982F3F
S1132330872F762F652F542F432F322F2227B85003
S113234031F7BF9127C01B2EBF91BB27220F331F2C
S1132350441F551F661F771F881F991F881C991CCF
S1132360EE1FFF1FCC1FDD1FAA1FBB1F8A149B0477
S1132370EC05FD05CE05DF05A007B10748F08A1876
S11323809B08EC09FD09CE09DF09A00BB10B216004
S11323901A94E1F62EF49401AF01BE01CD01000CB4
S11323A008956095709580959095309540955095D9
S11323B021953F4F4F4F5F4F6F4F7F4F8F4F9F4F31
S11323C008952F923F924F925F926F927F928F92D5
S11323D09F92AF92BF92CF92DF92EF92FF920F93B0
S11323E01F93CF93DF93CDB7DEB7CA1BDB0B0FB6BA
S11323F0F894DEBF0FBECDBF09942A883988488877
S11324005F846E847D848C849B84AA84B984C8840C
S1132410DF80EE80FD800C811B81AA81B981CE0F03
S1132420D11D0FB6F894DEBF0FBECDBFED010895E8
S11324300F93083090F0982F872F762F652F542F05
S1132440432F322F22270850F4CF220F331F441F6B
S1132450551F661F771F881F991F0A95B2F70F91A2
S113246008952A0D3B1D4C1D5D1D6E1D7F1D801F93
S1132470911F08952A193B094C095D096E097F09CA
S1132480800B910B08950024A7FD00942A173005B2
S11324904005500560057005800590050895A1E28A
S11324A01A2EAA1BBB1BFD010DC0AA1FBB1FEE1FCA
S11324B0FF1FA217B307E407F50720F0A21BB30B15
S11324C0E40BF50B661F771F881F991F1A9469F791
S11324D060957095809590959B01AC01BD01CF01ED
S11324E00895A29FB001B39FC001A39F700D811DE9
S11324F01124911DB29F700D811D1124911D089509
S1132500FB01DC0102C001900D9241505040D8F70C
S10925100895F894FFCFCA
S11325160101020103010401050106010C010D017B
S11325260E010F011A001B001C001D000000000014
S11325360000000043616C63756C61746F72004D3A
S11325466164652042793A00416C69204D616D648D
S11325566F68004D617468204572726F7200496E2F
S11325666974205461736B004C656454474C3100A4
S1132576427574746F6E436865636B003738392F20
S1132586343536783132332D63303D2B49444C454E
S105259600003F
S9030000FC
