:100000000C942A000C9447000C9447000C94470071
:100010000C9447000C9447000C9447000C94EB0898
:100020000C9447000C9447000C9447000C94470034
:100030000C9447000C9447000C9447000C94470024
:100040000C9447000C9447000C9447000C94470014
:100050000C94470011241FBECFE5D8E0DEBFCDBF12
:1000600010E0A0E6B0E0ECEAF0E202C005900D92EC
:10007000A23EB107D9F727E0A2EEB0E001C01D9281
:10008000A038B207E1F70E949A030C9454100C9424
:1000900000000E9451060E944B040E949D0360E0F4
:1000A00080E00E94720584E890E00E94C5042FEF72
:1000B00087EA91E6215080409040E1F700C00000BF
:1000C0000E948D0560E080E00E9472058FE890E05C
:1000D0000E94C50460E081E00E94720588E990E01A
:1000E0000E94C5042FEF87EA91E62150804090409E
:1000F000E1F700C000000E948D0540E061E083E26E
:100100000E94EF099093330180933201809138016E
:10011000909139010E94EF0EBCCFCF93DF931F92D5
:10012000CDB7DEB719824FEF5FEFBE016F5F7F4F34
:1001300080913201909133010E94BD0A89818837F4
:1001400041F091ED980F9B3020F08B3211F08D3201
:1001500019F40E94670437C08D3389F58091E60059
:10016000811112C08DE30E94670460E081E00E946B
:1001700072056091E7007091E8008091E90090912C
:10018000EA000E94E1041FC08130E9F48DE30E947F
:10019000670460E081E00E94720583EA90E00E94BB
:1001A000C5042FEF87EA91E6215080409040E1F7A7
:1001B00000C000000E948D051092E60004C0833646
:1001C00011F40E948D0582E390E00E94750EABCF82
:1001D0001092E6001092E4001092E5001092E70001
:1001E0001092E8001092E9001092EA00ECEEF0E0C4
:1001F00086EF90E01192E817F907E1F78AE0809323
:10020000E300E6EFF0E082E391E0119211921192A7
:100210001192E817F907C9F78FE08093E20008957B
:100220008091E400E82FF0E0E451FF4F9091EB0063
:1002300090839091E5009F5F9093E5008F5F80939E
:10024000E4000895E091E500F0E0EE0FFF1FEE0FEF
:10025000FF1FEA50FF4F80819181A281B381880FF7
:10026000991FAA1FBB1FAC01BD01440F551F661F7C
:10027000771F440F551F661F771F840F951FA61FFA
:10028000B71F4091EB0050E040535109052E000C80
:10029000660B770B840F951FA61FB71F8083918372
:1002A000A283B38308951092E4001092E5001092A7
:1002B000E7001092E8001092E9001092EA00ECEEDC
:1002C000F0E086EF90E01192E817F907E1F78AE095
:1002D0008093E300E6EFF0E082E391E01192119267
:1002E00011921192E817F907C9F78FE08093E200A5
:1002F00008950F931F93CF93C091E3008C2F90E04C
:100300008C01000F111F000F111F0A501F4F880F83
:10031000991F880F991FFC01E650FF4F2081318102
:1003200042815381F80160817181828193810E94B1
:10033000E00F6083718382839383C093E2005091C6
:10034000E400C51740F58C2F90E09C012F5F3F4FD4
:10035000F901E451FF4F4081FC01E451FF4F40831C
:10036000880F991F880F991FFC01E250FF4F808171
:100370009181A281B381220F331F220F331FF90114
:10038000EA50FF4F80839183A283B383CF5FC5136D
:10039000DACF5093E200CF911F910F9108950F9300
:1003A0001F93CF93C091E3008C2F90E0FC01EE0FE0
:1003B000FF1FEE0FFF1FE650FF4F2081318142816A
:1003C0005381211531054105510521F481E08093C8
:1003D000E60013C0880F991F880F991F8C010A50DF
:1003E0001F4FF80160817181828193810E94F00F1B
:1003F000F8012083318342835383C093E2005091FC
:10040000E400C51740F58C2F90E09C012F5F3F4F13
:10041000F901E451FF4F4081FC01E451FF4F40835B
:10042000880F991F880F991FFC01E250FF4F8081B0
:100430009181A281B381220F331F220F331FF90153
:10044000EA50FF4F80839183A283B383CF5FC513AC
:10045000DACF5093E200CF911F910F91089510923F
:10046000E3008091E400882309F491C080E090E0EB
:10047000FC01E451FF4F2081283769F5FC01E4516C
:10048000FF4F81818F3209F053C08091E30090E0EB
:10049000FC01E451FF4F2081283709F06EC0FC01B8
:1004A000E451FF4F81818F3209F067C00E947901CA
:1004B0000E94CF018091E30090E0FC01E451FF4FE6
:1004C0002081283709F059C0FC01E451FF4F818198
:1004D0008F3261F352C02F3209F04FC0FC01E4515A
:1004E000FF4F81818837B9F58091E30090E0FC01EE
:1004F000E451FF4F20812F3209F03FC0FC01E4514D
:10050000FF4F81818837C9F50E94CF010E94790190
:100510008091E30090E0FC01E451FF4F20812F32F5
:1005200061F5FC01E451FF4F8181883769F325C0F3
:10053000E091E300F0E0E451FF4F80818837E9F477
:100540000E947901E091E300F0E0E451FF4F8081E7
:100550008837B1F312C0E091E300F0E0E451FF4FBF
:1005600080818F3251F40E94CF01E091E300F0E0EE
:10057000E451FF4F80818F32B1F38091E3008F5FB0
:100580008093E3009091E400891708F470CF809184
:10059000F6009091F700A091F800B091F9008093D7
:1005A000E7009093E800A093E900B093EA00089573
:1005B000CF92DF92EF92FF921092E3009091E400CD
:1005C0009923B9F14091E7005091E8006091E9006A
:1005D0007091EA00ECEEF0E0AAEFB0E02FEF290F07
:1005E00030E023513F4F81918B3251F4CD90DD901B
:1005F000ED90FC9013974C0D5D1D6E1D7F1D0BC083
:100600008D3249F4CD90DD90ED90FC9013974C190C
:100610005D096E097F091496E217F30721F74093ED
:10062000E7005093E8006093E9007093EA0090932C
:10063000E300FF90EF90DF90CF9008950E942F028B
:100640000E94D8028091E600813011F40E9453018B
:1006500008950E94AE038093EB00882351F120E0BF
:100660004FEF5FEF6BEE70E08091320190913301BC
:100670000E941C0A8091EB00883731F0982F9B7FF5
:100680009B3211F08D3219F40E94100112C090EDCE
:10069000980F9A3018F40E9422010BC08D3329F470
:1006A0000E941E030E941E0304C0833611F40E94A0
:1006B000E80084E690E00E94750ECBCFEF92FF92A7
:1006C0000F930F2EF8E3EF2EF1E0FF2EF02D03E055
:1006D00020E030E044E650E06EEA70E089E490E02B
:1006E0000E94F90B0F2EF6E3EF2EF1E0FF2EF02D16
:1006F00002E020E030E044E650E068EB70E089E2A0
:1007000093E00E94F90B0F2EF4E3EF2EF1E0FF2EA1
:10071000F02D01E020E030E044E650E060EC70E0D5
:100720008DE890E00E94F90B0E940B0D0F91FF9055
:10073000EF9008950E945E03FFCF61E08CE00E947D
:10074000970561E08DE00E94970561E08EE00E94D0
:10075000970561E08FE00E9497050895DF92EF9280
:10076000FF920F931F93CF93DF930F2EFCECEF2E8E
:10077000F0E0FF2EF02DD12CDCE060E08D2F0E9408
:1007800097058701CAE18C2F0E941E0681110DC0BA
:10079000F801D0808C2F0E941E068823D9F38FE3A6
:1007A0009CE90197F1F700C00000CF5F0F5F1F4F7A
:1007B000CE3149F761E08D2F0E949705DF5F94E00D
:1007C000E90EF11CD031C9F68D2DDF91CF911F912B
:1007D0000F91FF90EF90DF900895CF93C82F60E0C6
:1007E00081E00E94970560E082E00E949705C4FBCB
:1007F000662760F983E00E949705C5FB662760F9CC
:1008000084E00E949705C6FB662760F985E00E9498
:1008100097056C2F661F6627661F86E00E94970566
:1008200061E082E00E9497058FE99FE00197F1F770
:1008300000C0000060E082E00E9497056C2F6170AC
:1008400083E00E949705C1FB662760F984E00E945F
:100850009705C2FB662760F985E00E949705C3FBF8
:10086000662760F986E00E94970561E082E00E94B9
:1008700097058FE99FE00197F1F700C0000060E065
:1008800082E00E9497058FE19EE40197F1F700C096
:100890000000CF91089583E30E94ED0382E30E945C
:1008A000ED0388E20E94ED0381E00E94ED0386E003
:1008B0000E94ED038CE00E94ED0382E00E94ED03B4
:1008C0008FE19EE40197F1F700C000000895CF93F7
:1008D000C82F61E081E00E94970560E082E00E94FD
:1008E0009705C4FB662760F983E00E949705C5FB66
:1008F000662760F984E00E949705C6FB662760F9C9
:1009000085E00E9497056C2F661F6627661F86E0AC
:100910000E94970561E082E00E9497058FE99FE0C1
:100920000197F1F700C0000060E082E00E949705A7
:100930006C2F617083E00E949705C1FB662760F908
:1009400084E00E949705C2FB662760F985E00E945B
:100950009705C3FB662760F986E00E94970561E072
:1009600082E00E9497058FE99FE00197F1F700C0B0
:10097000000060E082E00E9497058FE19EE401970D
:10098000F1F700C00000CF9108950F931F93CF930C
:10099000FC018081882359F08F01C0E00E94670428
:1009A000CF5FF801EC0FF11D80818111F7CF8FE14E
:1009B0009EE40197F1F700C00000CF911F910F91C5
:1009C00008954F925F926F927F928F929F92AF9213
:1009D000BF92CF92DF92EF92FF926B017C01611583
:1009E00071058105910551F480E30E94670467C099
:1009F0001C141D041E041F047CF061C09923C4F75D
:100A00008DE20E946704F094E094D094C094C11CDD
:100A1000D11CE11CF11CECCF61E070E080E090E0C3
:100A20000F2EFAE08F2E912CA12CB12CF02DDC0191
:100A3000CB01880F991FAA1FBB1F2C013D01440C3D
:100A4000551C661C771C440C551C661C771C480EF4
:100A5000591E6A1E7B1EC701B601A50194010E94A2
:100A6000F00F640D751D861D971DC22ED32EE42E2A
:100A7000F52E1C141D041E041F04CCF262307105F7
:100A800081059105E4F00F2EFAE08F2E912CA12C18
:100A9000B12CF02DA50194010E94F00FC22ED32E8F
:100AA000E42EF52E80E3860F0E9467046C2D7D2DC9
:100AB0008E2D9F2D62307105810591055CF78FE1C8
:100AC0009EE40197F1F700C00000FF90EF90DF90E7
:100AD000CF90BF90AF909F908F907F906F905F90DE
:100AE0004F900895CF93DF9300D0CDB7DEB790E855
:100AF000998390EC9A83FE01E80FF11D8181860FA6
:100B00000E94ED038FE19EE40197F1F700C0000021
:100B10000F900F90DF91CF91089581E00E94ED0337
:100B20008FE19EE40197F1F700C000000895982F2F
:100B30009695969596958770662309F43FC0613027
:100B400009F07BC0913099F028F09230E9F09330B1
:100B500041F108954BB321E030E0B90102C0660FC6
:100B6000771F8A95E2F7CB01842B8BBB089548B39E
:100B700021E030E0B90102C0660F771F8A95E2F7E5
:100B8000CB01842B88BB089545B321E030E0B90147
:100B900002C0660F771F8A95E2F7CB01842B85BBD5
:100BA000089542B321E030E0B90102C0660F771F1B
:100BB0008A95E2F7CB01842B82BB08959130A1F096
:100BC00028F09230F9F0933059F108954BB321E0B9
:100BD00030E0B90102C0660F771F8A95E2F7CB01BA
:100BE000809584238BBB089548B321E030E0B901A0
:100BF00002C0660F771F8A95E2F7CB0180958423A8
:100C000088BB089545B321E030E0B90102C0660F0A
:100C1000771F8A95E2F7CB018095842385BB0895E1
:100C200042B321E030E0B90102C0660F771F8A9518
:100C3000E2F7CB018095842382BB0895282F27708B
:100C4000869586958695813079F028F08230A9F0D6
:100C50008330E1F024C089B390E002C09595879578
:100C60002A95E2F78170089586B390E002C09595C9
:100C700087952A95E2F78170089583B390E002C0CA
:100C8000959587952A95E2F78170089580B390E055
:100C900002C0959587952A95E2F78170089580E0C6
:100CA0000895E0E6F0E044E850E061E070E0808123
:100CB000982F96959695969587702181222319F005
:100CC0002130C9F16BC0913091F028F09230D9F009
:100CD000933029F163C09AB39B0102C0220F331FE6
:100CE0008A95E2F7822F809589238ABB57C097B3F4
:100CF0009B0102C0220F331F8A95E2F7822F809555
:100D0000892387BB4BC094B39B0102C0220F331FC2
:100D10008A95E2F7822F8095892384BB3FC091B3E7
:100D20009B0102C0220F331F8A95E2F7822F809524
:100D3000892381BB33C0913089F028F09230C9F00B
:100D4000933011F12BC02AB3DB0102C0AA0FBB1FE5
:100D50008A95E2F7CD01822B8ABB20C027B3DB0145
:100D600002C0AA0FBB1F8A95E2F7CD01822B87BB79
:100D700015C024B3DB0102C0AA0FBB1F8A95E2F79E
:100D8000CD01822B84BB0AC021B3DB0102C0AA0FB4
:100D9000BB1F8A95E2F7CD01822B81BB3296E41707
:100DA000F50709F084CF0895CF93DF93EC010E94FB
:100DB000350D80913A0190913B01892B31F48FE3FD
:100DC00091E090933B0180933A0120913C01309156
:100DD0003D01C9018C0F9D1F8B3D45E0940770F4C8
:100DE0002817390770F4C0913A01D0913B01C20F26
:100DF000D31F90933D0180933C0105C0C0E0D0E03B
:100E000002C0C0E0D0E00E94F60DCE01DF91CF918C
:100E100008950895FC010396928381832FEF3FEF9D
:100E200034832383968385839087878310820895F4
:100E3000FC01118610860895CF93DF939C01FB017E
:100E4000DC011196CD91DC911297D383C2838C8102
:100E50009D81958384838C819D81DC0113967C9395
:100E60006E9312977D836C8331872087F90180818F
:100E70008F5F8083DF91CF910895CF93DF93EB0154
:100E8000488159814F3F2FEF520721F4FC01A78180
:100E9000B0850DC0DC01139601C0DF011296ED9103
:100EA000FC9113972081318142175307B0F71296B6
:100EB000ED91FC911397FB83EA83D583C483BD83B3
:100EC000AC831396DC93CE93129799878887FC01A5
:100ED00020812F5F2083DF91CF910895CF93DF93FF
:100EE000FC01A085B185C281D381848195819D83D8
:100EF0008C83C481D581828193819B838A8311965F
:100F00008D919C911297E817F90731F484819581AE
:100F100012969C938E931197118610868C91815016
:100F20008C938C91DF91CF91089531E1FC01308356
:100F3000319722E220833197A3E3A0833197608326
:100F40003197708331971082319760E860833197D1
:100F50001082319762E06083319763E0608331975C
:100F600064E06083319765E06083319766E0608379
:100F7000319767E06083319768E06083319769E07B
:100F80006083319760E1608331973083319732E13C
:100F90003083319733E13083319734E130833197B7
:100FA00035E13083319736E13083319737E1308353
:100FB000319738E13083319739E13083319730E22E
:100FC0003083319731E2308331972083319723E2A8
:100FD00020833197408331975083319726E22083D5
:100FE000319727E22083319728E22083319729E245
:100FF0002083319720E32083319721E32083869754
:1010000008951BBC89EF8ABD8BE08EBD89B78061D6
:1010100089BFA0917E07B0917F07CD91CDBFDD91B3
:10102000DEBFFF91EF91DF91CF91BF91AF919F9183
:101030008F917F916F915F914F913F912F911F9170
:101040000F91FF90EF90DF90CF90BF90AF909F9067
:101050008F907F906F905F904F903F902F901F9058
:101060000F900FBE0F90089581E008950F920FB674
:10107000F8940F921F9211242F923F924F925F92F9
:101080006F927F928F929F92AF92BF92CF92DF9298
:10109000EF92FF920F931F932F933F934F935F9382
:1010A0006F937F938F939F93AF93BF93CF93DF9370
:1010B000EF93FF93A0917E07B0917F070DB60D923D
:1010C0000EB60D920E94890EA0917E07B0917F0707
:1010D000CD91CDBFDD91DEBFFF91EF91DF91CF913B
:1010E000BF91AF919F918F917F916F915F914F9140
:1010F0003F912F911F910F91FF90EF90DF90CF9034
:10110000BF90AF909F908F907F906F905F904F9027
:101110003F902F901F900F900FBE0F9008950F9249
:101120000FB6F8940F921F9211242F923F924F9274
:101130005F926F927F928F929F92AF92BF92CF9267
:10114000DF92EF92FF920F931F932F933F934F9352
:101150005F936F937F938F939F93AF93BF93CF933F
:10116000DF93EF93FF93A0917E07B0917F070DB6B9
:101170000D920EB60D920E943B0D81110E94890EB8
:10118000A0917E07B0917F07CD91CDBFDD91DEBFED
:10119000FF91EF91DF91CF91BF91AF919F918F918F
:1011A0007F916F915F914F913F912F911F910F917F
:1011B000FF90EF90DF90CF90BF90AF909F908F9077
:1011C0007F906F905F904F903F902F901F900F9067
:1011D0000FBE0F9008950E948F0818950FB6F894CF
:1011E0000F92FC01928D0F900FBE81E0911180E073
:1011F00008950F931F93CF93DF93EC01042F1A8D63
:101200004C8D4423B9F1011116C050E08A819B81B5
:101210000E944B102C8D8A819B81820F911D9B8394
:101220008A832C813D818217930720F188819981DF
:101230009B838A831FC050E08E819F810E944B1048
:101240008C8D90E09195819591092E813F81280F99
:10125000391F3F832E83488159812417350730F485
:101260002C813D81820F931F9F838E83023011F466
:10127000111111501F5F1A8F80E0DF91CF911F91E4
:101280000F910895FC01448D4423A9F050E026817C
:101290003781240F351F3783268384819581281752
:1012A000390720F08081918197838683CB01668105
:1012B00077810E944B100895EF92FF920F931F9336
:1012C000CF938C010FB6F8940F92FC01C68D1C16BB
:1012D000ACF48189811106C011C0F80181898111A6
:1012E00005C00CC07801F1E1EF0EF11CC7010E94AE
:1012F000530F81110E94DC0FC15079F78FEFF80175
:10130000868F0F900FBE0FB6F8940F92C58D1C16E6
:10131000ACF48085811106C011C0F801808581116F
:1013200005C00CC07801F8E0EF0EF11CC7010E9467
:10133000530F81110E94DC0FC15079F78FEFF80134
:10134000858F0F900FBECF911F910F91FF90EF905F
:101350000895CF93DF93EC010FB6F8940F92E881D4
:10136000F9818B8D2C8D90E030E0829FA001839FCE
:10137000500D929F500D11244E0F5F1F5D834C83C3
:101380001A8EFB83EA830197829FA001839F500DF1
:10139000929F500D1124CF01840F951F9F838E8340
:1013A0008FEF8D8F8E8F61110CC08885882389F017
:1013B000CE0108960E94530F882359F00E943608E8
:1013C00008C0CE0108960E940A07CE0141960E94ED
:1013D0000A070F900FBE81E0DF91CF9108950F9320
:1013E0001F93CF93DF93082F162F6623C1F0869F9C
:1013F000C00111244F960E94D406EC01009741F4DD
:1014000015C00B8F1C8F61E0CE010E94A9090EC090
:101410004F9699838883F5CFD983C883F2CF8FE124
:1014200090E00E94D406EC01892BB1F7CE01DF9148
:10143000CF911F910F9108959F92AF92BF92CF923B
:10144000DF92EF92FF920F931F93CF93DF9300D021
:1014500000D01F92CDB7DEB78C016B015D834C834A
:10146000A22EB12C992493947C0188E0E80EF11C03
:101470000FB6F8940F92F801928D838D981718F09B
:10148000F2E0AF1219C04A2DB601C8010E94F90856
:10149000F8019189992349F0C80141960E94530FA0
:1014A000882331F00E94360803C081110E9436085B
:1014B0000F900FBE81E050C08C819D81892B21F45B
:1014C0000F900FBE80E048C0B11005C0CE0101965C
:1014D0000E949B0FB92C0F900FBE0E94350D0FB6C6
:1014E000F8940F92F801858D8F3F09F4158EF8015D
:1014F000868D8F3F09F4168E0F900FBEBE016C5F74
:101500007F4FCE0101960E94A60F81111FC00FB61A
:10151000F8940F92F801928D0F900FBE838D98135F
:101520000FC06C817D81C7010E94410FC8010E94DC
:101530005C090E94F60D81119BCF0E94360898CF5E
:10154000C8010E945C090E94F60D92CFC8010E945A
:101550005C090E94F60D80E00F900F900F900F90A5
:101560000F90DF91CF911F910F91FF90EF90DF903F
:10157000CF90BF90AF909F9008959F92AF92BF92EF
:10158000CF92DF92EF92FF920F931F93CF93DF934F
:1015900000D000D01F92CDB7DEB78C015B015D8318
:1015A0004C83E12C992493946C0181E1C80ED11CE9
:1015B0000FB6F8940F92F801F28CFF20A9F0B50154
:1015C000C8010E944209FA94F801F28E80858823AE
:1015D00039F0C80108960E94530F81110E94360805
:1015E0000F900FBE81E051C08C819D81892B21F429
:1015F0000F900FBE80E049C0E11005C0CE010196FA
:101600000E949B0FE92C0F900FBE0E94350D0FB664
:10161000F8940F92F801858D8F3F09F4158EF8012B
:10162000868D8F3F09F4168E0F900FBEBE016C5F42
:101630007F4FCE0101960E94A60F81111AC0C801EA
:101640000E94EE08882379F06C817D81C6010E949A
:10165000410FC8010E945C090E94F60D8111A8CFBC
:101660000E943608A5CFC8010E945C090E94F60DB1
:101670009FCFC8010E945C090E94F60DC8010E941C
:10168000EE08882309F494CF80E00F900F900F901C
:101690000F900F90DF91CF911F910F91FF90EF90DE
:1016A000DF90CF90BF90AF909F900895E091460754
:1016B000F09147078081811107C08FEF9FEF9093D2
:1016C0001E0780931D070895E0914607F091470794
:1016D0000580F681E02D0680F781E02D82819381DF
:1016E00090931E0780931D07089502E317E08091F1
:1016F00031078823E1F30FB6F8940F92D8011596BD
:10170000ED91FC911697C681D781CE0102960E9479
:101710006E078091270781508093270780913107BA
:101720008150809331070F900FBE8F89988D0E9452
:101730000907CE010E940907809131078111DBCF93
:10174000D6CFFF920F931F93CF93DF93EC01F62E2A
:10175000009125071091260780917E0790917F07C1
:1017600002960E946E07CF3F8FEFD80769F4FF20E3
:1017700059F060917E0770917F076E5F7F4F88E21E
:1017800097E00E941C072FC0C00FD11FE0917E0779
:10179000F0917F07D383C283C017D10768F46091AB
:1017A0007E0770917F0780914407909145076E5F97
:1017B0007F4F0E943D0717C060917E0770917F07A1
:1017C00080914607909147076E5F7F4F0E943D07CB
:1017D00080911D0790911E07C817D90720F4D09358
:1017E0001E07C0931D07DF91CF911F910F91FF90AE
:1017F00008954F925F926F927F928F929F92AF92D5
:10180000BF92CF92DF92EF92FF920F93CF93DF932D
:101810004C016B015A012901CA010E94D4063C0106
:10182000892B09F4E7C086E290E00E94D406EC011F
:10183000892B59F0788E6F8A81E0A81AB108A60C1E
:10184000B71CC114D10429F420C0C3010E940907A8
:10185000D1C0D6018C91898F8C918823A1F0AE01E3
:10186000465E5F4FF6013196B8E0CB0ED11CCF013A
:101870002191DA012D93AD01DC018C91882319F0BF
:10188000EC15FD05A1F718A201C0198E043008F06F
:1018900003E00E8B6E01B2E0CB0ED11CC6010E949C
:1018A0001807CE010C960E941807D987C88784E0D4
:1018B00090E0801B91099D878C87DB8BCA8B19A2D6
:1018C0001AA21BA21CA21DA2A201B401C5010E9462
:1018D000950799838883E114F10419F0F701D18306
:1018E000C0830FB6F8940F92809127078F5F809383
:1018F000270780917E0790917F07892BD1F5D093A0
:101900007F07C0937E0780912707813009F041C08F
:101910008AE597E00E940A0783E697E00E940A079B
:101920008CE697E00E940A0785E797E00E940A0785
:1019300081E597E00E940A0788E497E00E940A0781
:101940008BE397E00E940A0782E397E00E940A0770
:1019500088E297E00E940A0781E597E090934707A5
:101960008093460788E497E0909345078093440767
:1019700010C08091230781110CC0E0917E07F09187
:101980007F0796898E89891720F0D0937F07C093AF
:101990007E0780911F078F5F80931F078E8990912C
:1019A0002407981710F48093240790E09C01220FDD
:1019B000331F220F331F220F331F820F931FB601D5
:1019C000865A984F0E941C070F900FBE80912307E4
:1019D000882361F0E0917E07F0917F0796898E89D8
:1019E000981730F40E94360881E005C081E003C0FA
:1019F00081E001C08FEFDF91CF910F91FF90EF90C9
:101A0000DF90CF90BF90AF909F908F907F906F901E
:101A10005F904F900895EF92FF920F930F2EFBE18E
:101A2000EF2EF7E0FF2EF02D00E020E030E045E55E
:101A300050E06CED70E085E79BE00E94F90B81308F
:101A400081F4F8948FEF9FEF90931E0780931D070A
:101A500081E08093230710922607109225070E94A9
:101A600001080F91FF90EF90089580911A078F5F02
:101A700080931A070895CF92DF92EF92FF920F930F
:101A80001F93CF93DF9380911A07811199C0E09043
:101A90002507F09026078FEFE81AF80AF09226073C
:101AA000E0922507E114F104B9F480914607909182
:101AB000470720914407309145073093470720930B
:101AC00046079093450780934407809120078F5FD6
:101AD000809320070E94560B80911D0790911E074E
:101AE000E816F90610F4D12C53C0D12CCC24C394A1
:101AF000E0914607F09147078081811107C08FEF81
:101B00009FEF90931E0780931D0742C0E091460708
:101B1000F09147070580F681E02DC681D7818A8143
:101B20009B81E816F90628F490931E0780931D0701
:101B30002FC08E010E5F1F4FC8010E946E078C8957
:101B40009D89892B21F0CE010C960E946E078E890B
:101B500090912407981710F48093240790E09C013B
:101B6000220F331F220F331F220F331F820F931FA9
:101B7000B801865A984F0E941C07E0917E07F091A9
:101B80007F079E898689981708F4B2CFDC2CB0CFE6
:101B9000E0917E07F0917F07868990E0FC01EE0FCF
:101BA000FF1FEE0FFF1FEE0FFF1F8E0F9F1FFC0189
:101BB000E65AF84F8081823048F0DD24D39406C085
:101BC000809122078F5F80932207D12C809121077B
:101BD000882311F0DD24D3948D2DDF91CF911F91B7
:101BE0000F91FF90EF90DF90CF900895DF92EF92EA
:101BF000FF920F931F93CF93DF930FB6F8940F923A
:101C000080911A07815080931A0780911A078111D9
:101C10005FC080912707811133C05DC0D701159641
:101C2000ED91FC911697C681D781CE010C960E944A
:101C30006E078E010E5F1F4FC8010E946E078E89CE
:101C400090912407981710F48093240790E09C014A
:101C5000220F331F220F331F220F331F820F931FB8
:101C6000B801865A984F0E941C07E0917E07F091B8
:101C70007F079E898689981768F0D09221070AC04D
:101C8000C0E0D0E00F2EFBE3EF2EF7E0FF2EF02DAB
:101C9000DD24D394F70180818111C0CFCD2B11F0C9
:101CA0000E94560BC0912207CC2351F0D1E00E9434
:101CB0003B0D8111D0932107C150C9F71092220723
:101CC00080912107882331F00E94360881E003C00B
:101CD00080E001C080E00F900FBEDF91CF911F9197
:101CE0000F91FF90EF90DF900895CF93DF93EC0179
:101CF000892B51F00E94350D60E0CE010E94A10BAE
:101D00000E94F60D811102C00E943608DF91CF912A
:101D1000089580911A07882321F081E0809321079C
:101D200008951092210720912407822F90E0FC0152
:101D3000EE0FFF1FEE0FFF1FEE0FFF1FE80FF91F43
:101D4000E65AF84F3081311111C02150822F90E0B6
:101D5000FC01EE0FFF1FEE0FFF1FEE0FFF1FE80F3E
:101D6000F91FE65AF84F3081332379F3AC01440F61
:101D7000551F440F551F440F551F480F591FDA01B7
:101D8000A65AB84F1196ED91FC9112970280F381FB
:101D9000E02D1296FC93EE931197435A584FE41797
:101DA000F50729F442815381FD0152834183FC01EF
:101DB000EE0FFF1FEE0FFF1FEE0FFF1F8E0F9F1F77
:101DC000FC01E65AF84F0180F281E02D868197816F
:101DD00090937F0780937E072093240708950F93A5
:101DE0001F93CF93DF93EC010FB6F8940F92892BDA
:101DF00021F4C0917E07D0917F078E010E5F1F4FA7
:101E0000C8010E946E078C899D89892B21F0CE0123
:101E10000C960E946E07B80188E297E00E941C07AA
:101E20008DA1813009F41DA20F900FBE8091230770
:101E3000882339F00FB6F8940F920E94560B0F903A
:101E40000FBE80917E0790917F07C817D907A1F434
:101E500080912307882319F00E9436080DC09091C5
:101E6000280780912707981305C010927F071092CA
:101E70007E0702C00E94890EDF91CF911F910F91C2
:101E80000895CF93DF93EB0160917E0770917F07F8
:101E9000645F7F4F0E943D0761E0CE010E94A10B6D
:101EA000DF91CF9108950F931F93CF93DF93DC01C0
:101EB0001596ED91FC911697C681D7818E01045F2E
:101EC0001F4FC8010E946E0780911A0781111CC024
:101ED0000A501109C8010E946E078E89909124074B
:101EE000981710F48093240790E09C01220F331F71
:101EF000220F331F220F331F820F931FB801865A00
:101F0000984F0E941C0705C0B8018BE397E00E9420
:101F10001C07E0917E07F0917F079E8986898917CB
:101F200020F481E08093210701C080E0DF91CF9110
:101F30001F910F91089520912007FC01208320918B
:101F4000250730912607328321830895CF93DF93AD
:101F50000FB6F8940F922091250730912607DB01E8
:101F60004D915C914F3FBFEF5B07F1F0EC01E981D0
:101F7000FA81A0912007B881BA1719F02E173F07F0
:101F8000A8F42E1B3F0B2417350748F4FB01421B16
:101F9000530B518340830E949B0F80E008C0FB01DC
:101FA0001182108281E003C080E001C081E00F90C7
:101FB0000FBEDF91CF91089581E0809321070895AE
:101FC000DB018F939F930E940F10BF91AF91A29F4F
:101FD000800D911DA39F900DB29F900D1124089527
:101FE000052E97FB1EF400940E94071057FD07D0A2
:101FF0000E941A1007FC03D04EF40C940710509561
:102000004095309521953F4F4F4F5F4F08959095E4
:102010008095709561957F4F8F4F9F4F08950E94D7
:102020003C10A59F900DB49F900DA49F800D911D15
:1020300011240895A1E21A2EAA1BBB1BFD010DC09D
:10204000AA1FBB1FEE1FFF1FA217B307E407F50768
:1020500020F0A21BB30BE40BF50B661F771F881F44
:10206000991F1A9469F760957095809590959B01DA
:10207000AC01BD01CF010895A29FB001B39FC00183
:10208000A39F700D811D1124911DB29F700D811DA4
:102090001124911D0895FB01DC0102C001900D92F5
:0C20A00041505040D8F70895F894FFCF4D
:1020AC000101020103010401050106010C010D01EE
:1020BC000E010F011A001B001C001D000000000087
:1020CC000000000043616C63756C61746F72004DAD
:1020DC006164652042793A00416C69204D616D6400
:1020EC006F68004D617468204572726F7200496EA2
:1020FC006974205461736B004C656454474C310017
:10210C00427574746F6E436865636B003132332BA8
:10211C003435362D373839783D30632F49444C45AA
:02212C000000B1
:00000001FF
